:03000000020BAC44
:10080000E4F508F509F51075115AF50EF50FF51216
:10081000F513F50AF50B30B4030208CD20B60BD260
:10082000B5C2B3E4F50AF50B800AC2B5D2B37510B0
:100830000075115A75A008120B7575A00C120B7576
:1008400075A004120B7575A006120B7575A0021227
:100850000B7575A003120B7575A001120B7575A0B1
:1008600009050FE50F7002050E20B5030208F1051A
:1008700009E50970020508E4F52BF52CF50CF50DDA
:10088000F514F515E50964054508703C7414251147
:10089000F511E43510F5107F38120B887F0E120B1E
:1008A000887F0C120B887F80120B887BFF7A0B7974
:1008B0005E120AE97F88120B88120B14AF11AE107A
:1008C000120A6EE4F508F509120B758024C2B5C250
:1008D000B37F01120B8875100075115AE4F512F5FB
:1008E00013F50AF50BF52BF52CF50CF50DF514F5B4
:1008F0001520B3030209A1050BE50B7002050A20C0
:10090000E042052CE52C7002052B643C452B70342D
:10091000050DE50D7002050C120B75E4F52BF52C99
:10092000E50D643C450C701C0515E51570020514B9
:10093000120B75E4F50CF50DE515641845147004FB
:10094000F514F5157F38120B887F0E120B887F0C7B
:10095000120B887F90120B887BFF7A0B7966120A44
:10096000E97F96120B88120B14AF15AE14120A6EA3
:100970007F98120B88120AE3120B147F99120B88CE
:10098000120B14AF0DAE0C120A6E7F9B120B881265
:100990000AE37F9C120B88120B14AF2CAE2B120AA9
:1009A0006EE50F640A450E600302081674D0251325
:1009B000F51374073512F5127F38120B887F0E126B
:1009C0000B887F0C120B887FC0120B887BFF7A0B81
:1009D000796F120AE97FC8120B88120B14AF13AE9D
:1009E00012120A6EE4F50EF50F020816BB010CE5B3
:1009F0008229F582E5833AF583E0225006E92582D3
:100A0000F8E622BBFE06E92582F8E222E58229F516
:100A100082E5833AF583E49322BC000BBE0029EF04
:100A20008DF084FFADF022E4CCF875F008EF2FFFD5
:100A3000EE33FEEC33FCEE9DEC984005FCEE9DFEA3
:100A40000FD5F0E9E4CEFD22EDF8F5F0EE8420D2EA
:100A50001CFEADF075F008EF2FFFED33FD40079859
:100A60005006D5F0F222C398FD0FD5F0EA22AB076D
:100A7000AA06900000D3EB9400EA9400402A7C0080
:100A80007D0AAF03AE02120A19AF82EF25E02416E9
:100A9000F8A60408A6057C007D0AAF03AE02120A80
:100AA00019AA06AB07A380CDE582158270021583D3
:100AB000C3E583648094804029AF82EF25E024164B
:100AC000F808E62430F52AF590C2B1D2B0D2B27F50
:100AD000017E00120B18C2B2E582158270D2158316
:100AE00080CE227BFF7A0B796D8B2D8A2E892FE4A5
:100AF000F530F531AB2DAA2EA92F853182853083B3
:100B00001209ECFF600D120B9A0531E53170E50515
:100B10003080E1227FFA7E00E4FDFCD3ED9FEE649D
:100B200080F8EC6480985015E4FBFA0BBB00010AD6
:100B3000EB640B4A70F50DBD00010C80DE22E4FD74
:100B4000FCC3ED9FEC9E5015E4FBFA0BBB00010AC1
:100B5000EB64644A70F50DBD00010C80E422416D28
:100B60006F756E743A00456D7074793A003A0046BC
:100B700075656C3A00E4FFE4FEE4FD0DBD64FC0E17
:100B8000BE64F60FBF02F0228F90D2B2C2B0C2B1E3
:100B90007F017E00120B18C2B2228F90D2B2D2B067
:100BA000C2B17F017E00120B3EC2B222787FE4F612
:080BB000D8FD75813102080037
:00000001FF
